{
  "contractName": "WealthWalletFactory",
  "abi": [
    {
      "inputs": [
        {
          "internalType": "address",
          "name": "",
          "type": "address"
        }
      ],
      "name": "wealthWallets",
      "outputs": [
        {
          "internalType": "contract WealthWallet",
          "name": "",
          "type": "address"
        }
      ],
      "stateMutability": "view",
      "type": "function"
    },
    {
      "inputs": [],
      "name": "createWealthWallet",
      "outputs": [],
      "stateMutability": "nonpayable",
      "type": "function"
    },
    {
      "inputs": [],
      "name": "getWealthWallet",
      "outputs": [
        {
          "internalType": "address",
          "name": "",
          "type": "address"
        }
      ],
      "stateMutability": "view",
      "type": "function"
    }
  ],
  "bytecode": "0x608060405234801561001057600080fd5b50612d72806100206000396000f3fe608060405234801561001057600080fd5b50600436106100415760003560e01c806365200bae1461004657806390dfa7d014610050578063e5aac23614610074575b600080fd5b61004e61009a565b005b610058610172565b604080516001600160a01b039092168252519081900360200190f35b6100586004803603602081101561008a57600080fd5b50356001600160a01b031661018e565b336000908152602081905260409020546001600160a01b031615610105576040805162461bcd60e51b815260206004820152601b60248201527f5765616c746877616c6c657420616c7265616479206578697374730000000000604482015290519081900360640190fd5b600033604051610114906101a9565b6001600160a01b03909116815260405190819003602001906000f080158015610141573d6000803e3d6000fd5b5033600090815260208190526040902080546001600160a01b0319166001600160a01b039290921691909117905550565b336000908152602081905260409020546001600160a01b031690565b6000602081905290815260409020546001600160a01b031681565b612b86806101b78339019056fe608060405234801561001057600080fd5b50604051612b86380380612b868339818101604052602081101561003357600080fd5b5051600080546001600160a01b039092166001600160a01b03199092169190911781556003805460ff19169055600155612b14806100726000396000f3fe6080604052600436106100ab5760003560e01c80638da5cb5b116100645780638da5cb5b146101b157806393352ce8146101c65780639d353c7214610279578063a26759cb1461028e578063e0da6b6614610296578063f96fa1d0146102c0576100ba565b806304b24602146100bf578063367ca914146100dc578063509b0f371461012257806376d5cc3514610149578063794c059414610172578063893d20e81461019c576100ba565b366100ba576100b86102d5565b005b600080fd5b6100b8600480360360208110156100d557600080fd5b503561032e565b3480156100e857600080fd5b50610106600480360360208110156100ff57600080fd5b5035610393565b604080516001600160a01b039092168252519081900360200190f35b34801561012e57600080fd5b506101376103ae565b60408051918252519081900360200190f35b34801561015557600080fd5b5061015e6103b4565b604080519115158252519081900360200190f35b34801561017e57600080fd5b506101066004803603602081101561019557600080fd5b50356103bd565b3480156101a857600080fd5b506101066103d8565b3480156101bd57600080fd5b506101066103e7565b3480156101d257600080fd5b506100b8600480360360208110156101e957600080fd5b81019060208101813564010000000081111561020457600080fd5b82018360208201111561021657600080fd5b8035906020019184600183028401116401000000008311171561023857600080fd5b91908080601f0160208091040260200160405190810160405280939291908181526020018383808284376000920191909152509295506103f6945050505050565b34801561028557600080fd5b5061013761054c565b6100b86102d5565b3480156102a257600080fd5b506100b8600480360360208110156102b957600080fd5b5035610552565b3480156102cc57600080fd5b506101376105f6565b60035460ff16610321576040805162461bcd60e51b8152602060048201526012602482015271437265617465206120706f7274666f6c696f60701b604482015290519081900360640190fd5b61032c60045461032e565b565b6000818152600260205260408082205490516001600160a01b03909116918291349181818185875af1925050503d8060008114610387576040519150601f19603f3d011682016040523d82523d6000602084013e61038c565b606091505b5050505050565b6002602052600090815260409020546001600160a01b031681565b60015490565b60035460ff1681565b6000908152600260205260409020546001600160a01b031690565b6000546001600160a01b031690565b6000546001600160a01b031681565b6000546001600160a01b0316331461043f5760405162461bcd60e51b8152600401808060200182810382526022815260200180612abd6022913960400191505060405180910390fd5b600080546040516001600160a01b0390911690839061045d906105fc565b6001600160a01b0383168152604060208083018281528451928401929092528351606084019185019080838360005b838110156104a457818101518382015260200161048c565b50505050905090810190601f1680156104d15780820380516001836020036101000a031916815260200191505b509350505050604051809103906000f0801580156104f3573d6000803e3d6000fd5b50600154600090815260026020526040902080546001600160a01b0319166001600160a01b03831617905560035490915060ff1661054057600180546004556003805460ff191690911790555b50506001805481019055565b60045481565b6000546001600160a01b0316331461059b5760405162461bcd60e51b8152600401808060200182810382526022815260200180612abd6022913960400191505060405180910390fd5b60015481106105f1576040805162461bcd60e51b815260206004820152601760248201527f506f7274666f6c696f20646f65736e2774206578697374000000000000000000604482015290519081900360640190fd5b600455565b60015481565b6124b38061060a8339019056fe60806040523480156200001157600080fd5b50604051620024b3380380620024b3833981810160405260408110156200003757600080fd5b8151602083018051604051929492938301929190846401000000008211156200005f57600080fd5b9083019060208201858111156200007557600080fd5b82516401000000008111828201881017156200009057600080fd5b82525081516020918201929091019080838360005b83811015620000bf578181015183820152602001620000a5565b50505050905090810190601f168015620000ed5780820380516001836020036101000a031916815260200191505b506040525050600080546001600160a01b0319166001600160a01b0385161790555080516200012490600190602084019062000140565b50506000600255506008805464ffffffffff19169055620001ec565b828054600181600116156101000203166002900490600052602060002090601f016020900481019282620001785760008555620001c3565b82601f106200019357805160ff1916838001178555620001c3565b82800160010185558215620001c3579182015b82811115620001c3578251825591602001919060010190620001a6565b50620001d1929150620001d5565b5090565b5b80821115620001d15760008155600101620001d6565b6122b780620001fc6000396000f3fe6080604052600436106100e15760003560e01c80638da5cb5b1161007f578063cf35bdd011610059578063cf35bdd014610576578063d0e30db0146105a0578063e07b098a146105a8578063e282192d146105bd576100f0565b80638da5cb5b146102db578063a1f24b3d1461030c578063c26d391e14610432576100f0565b80632e1a7d4d116100bb5780632e1a7d4d146101d657806366605ba4146102005780637d7c2a1c146102b1578063853828b6146102c6576100f0565b806306fdde03146100f5578063108c86831461017f578063253afd05146101af576100f0565b366100f0576100ee610604565b005b600080fd5b34801561010157600080fd5b5061010a61066c565b6040805160208082528351818301528351919283929083019185019080838360005b8381101561014457818101518382015260200161012c565b50505050905090810190601f1680156101715780820380516001836020036101000a031916815260200191505b509250505060405180910390f35b34801561018b57600080fd5b506100ee600480360360408110156101a257600080fd5b50803590602001356106f9565b3480156101bb57600080fd5b506101c4610759565b60408051918252519081900360200190f35b3480156101e257600080fd5b506100ee600480360360208110156101f957600080fd5b503561075f565b34801561020c57600080fd5b506100ee6004803603602081101561022357600080fd5b810190602081018135600160201b81111561023d57600080fd5b82018360208201111561024f57600080fd5b803590602001918460018302840111600160201b8311171561027057600080fd5b91908080601f016020809104026020016040519081016040528093929190818152602001838380828437600092019190915250929550610832945050505050565b3480156102bd57600080fd5b506100ee610892565b3480156102d257600080fd5b506100ee61090f565b3480156102e757600080fd5b506102f06109d1565b604080516001600160a01b039092168252519081900360200190f35b34801561031857600080fd5b506103366004803603602081101561032f57600080fd5b50356109e0565b604051808060200180602001866001600160a01b03168152602001858152602001848152602001838103835288818151815260200191508051906020019080838360005b8381101561039257818101518382015260200161037a565b50505050905090810190601f1680156103bf5780820380516001836020036101000a031916815260200191505b50838103825287518152875160209182019189019080838360005b838110156103f25781810151838201526020016103da565b50505050905090810190601f16801561041f5780820380516001836020036101000a031916815260200191505b5097505050505050505060405180910390f35b34801561043e57600080fd5b506100ee6004803603608081101561045557600080fd5b810190602081018135600160201b81111561046f57600080fd5b82018360208201111561048157600080fd5b803590602001918460018302840111600160201b831117156104a257600080fd5b91908080601f0160208091040260200160405190810160405280939291908181526020018383808284376000920191909152509295949360208101935035915050600160201b8111156104f457600080fd5b82018360208201111561050657600080fd5b803590602001918460018302840111600160201b8311171561052757600080fd5b91908080601f016020809104026020016040519081016040528093929190818152602001838380828437600092019190915250929550506001600160a01b038335169350505060200135610b49565b34801561058257600080fd5b506103366004803603602081101561059957600080fd5b5035610c4d565b6100ee610604565b3480156105b457600080fd5b506101c4610daa565b3480156105c957600080fd5b506100ee600480360360808110156105e057600080fd5b508035906020810135906001600160a01b0360408201358116916060013516610db0565b60085460ff16610651576040805162461bcd60e51b8152602060048201526013602482015272436f6e66696775726520706f7274666f6c696f60681b604482015290519081900360640190fd5b600854600160201b900460ff1661066a5761066a610e94565b565b60018054604080516020600284861615610100026000190190941693909304601f810184900484028201840190925281815292918301828280156106f15780601f106106c6576101008083540402835291602001916106f1565b820191906000526020600020905b8154815290600101906020018083116106d457829003601f168201915b505050505081565b6000546001600160a01b031633146107425760405162461bcd60e51b815260040180806020018281038252602281526020018061223c6022913960400191505060405180910390fd5b600091825260036020819052604090922090910155565b60025490565b6000546001600160a01b031633146107a85760405162461bcd60e51b815260040180806020018281038252602281526020018061223c6022913960400191505060405180910390fd5b6008805464ff000000001916600160201b1790556107c4611081565b600080546040516001600160a01b039091169183919081818185875af1925050503d8060008114610811576040519150601f19603f3d011682016040523d82523d6000602084013e610816565b606091505b505050610821610e94565b506008805464ff0000000019169055565b6000546001600160a01b0316331461087b5760405162461bcd60e51b815260040180806020018281038252602281526020018061223c6022913960400191505060405180910390fd5b805161088e90600190602084019061219a565b5050565b6000546001600160a01b031633146108db5760405162461bcd60e51b815260040180806020018281038252602281526020018061223c6022913960400191505060405180910390fd5b6008805464ff000000001916600160201b1790556108f7611081565b6108ff610e94565b6008805464ff0000000019169055565b6000546001600160a01b031633146109585760405162461bcd60e51b815260040180806020018281038252602281526020018061223c6022913960400191505060405180910390fd5b6008805464ff000000001916600160201b179055610974611081565b600080546040516001600160a01b039091169147919081818185875af1925050503d80600081146109c1576040519150601f19603f3d011682016040523d82523d6000602084013e6109c6565b606091505b5050506108ff610e94565b6000546001600160a01b031681565b600081815260036020818152604080842060028082015494820154600483015483548551610100600180841615919091026000190190921694909404601f8101889004880285018801909652858452606098899890978897889796938701956001600160a01b0390931694929391879190830182828015610aa25780601f10610a7757610100808354040283529160200191610aa2565b820191906000526020600020905b815481529060010190602001808311610a8557829003601f168201915b5050875460408051602060026001851615610100026000190190941693909304601f8101849004840282018401909252818152959a5089945092508401905082828015610b305780601f10610b0557610100808354040283529160200191610b30565b820191906000526020600020905b815481529060010190602001808311610b1357829003601f168201915b50989f939e50959c50939a509198509650505050505050565b6000546001600160a01b03163314610b925760405162461bcd60e51b815260040180806020018281038252602281526020018061223c6022913960400191505060405180910390fd5b6040805160a08101825285815260208082018690526001600160a01b0385168284015260608201849052600060808301819052600254815260038252929092208151805192938493610be7928492019061219a565b506020828101518051610c00926001850192019061219a565b506040820151600282810180546001600160a01b0319166001600160a01b039093169290921790915560608301516003830155608090920151600490910155805460010190555050505050565b60036020908152600091825260409182902080548351601f60026000196101006001861615020190931692909204918201849004840281018401909452808452909291839190830182828015610ce45780601f10610cb957610100808354040283529160200191610ce4565b820191906000526020600020905b815481529060010190602001808311610cc757829003601f168201915b505050505090806001018054600181600116156101000203166002900480601f016020809104026020016040519081016040528092919081815260200182805460018160011615610100020316600290048015610d825780601f10610d5757610100808354040283529160200191610d82565b820191906000526020600020905b815481529060010190602001808311610d6557829003601f168201915b505050506002830154600384015460049094015492936001600160a01b039091169290915085565b60025481565b6000546001600160a01b03163314610df95760405162461bcd60e51b815260040180806020018281038252602281526020018061223c6022913960400191505060405180910390fd5b60408051608081018252858152602081018590526001600160a01b039384169181018290529183166060909201829052600494909455600592909255600680546001600160a01b031990811690941790819055600780548516909317928390556008805460098054958516959096169490941790945565010000000000600160c81b03199092169116600160281b021760ff19166001179055565b478060005b60025481101561107c5781610ead5761107c565b60008181526003602090815260408083208151815460026001821615610100026000190190911604601f8101859004909402810160c090810190935260a081018481529093919284928491840182828015610f495780601f10610f1e57610100808354040283529160200191610f49565b820191906000526020600020905b815481529060010190602001808311610f2c57829003601f168201915b50505050508152602001600182018054600181600116156101000203166002900480601f016020809104026020016040519081016040528092919081815260200182805460018160011615610100020316600290048015610feb5780601f10610fc057610100808354040283529160200191610feb565b820191906000526020600020905b815481529060010190602001808311610fce57829003601f168201915b505050918352505060028201546001600160a01b03166020820152600382015460408201526004909101546060918201528101519091508061102e57505061107c565b61271081860204848111611062576110468482611268565b84811415611057576000945061105d565b80850394505b611071565b61106c8486611268565b600094505b505050600101610e99565b505050565b6000546001600160a01b031633146110ca5760405162461bcd60e51b815260040180806020018281038252602281526020018061223c6022913960400191505060405180910390fd5b60005b6002548110156112655760008181526003602090815260408083208151815460026001821615610100026000190190911604601f8101859004909402810160c090810190935260a0810184815290939192849284918401828280156111735780601f1061114857610100808354040283529160200191611173565b820191906000526020600020905b81548152906001019060200180831161115657829003601f168201915b50505050508152602001600182018054600181600116156101000203166002900480601f0160208091040260200160405190810160405280929190818152602001828054600181600116156101000203166002900480156112155780601f106111ea57610100808354040283529160200191611215565b820191906000526020600020905b8154815290600101906020018083116111f857829003601f168201915b505050918352505060028201546001600160a01b031660208201526003820154604082015260049091015460609091015260808101519091501561125c5761125c8261185d565b506001016110cd565b50565b60008281526003602090815260408083208151815460026001821615610100026000190190911604601f8101859004909402810160c090810190935260a0810184815290939192849284918401828280156113045780601f106112d957610100808354040283529160200191611304565b820191906000526020600020905b8154815290600101906020018083116112e757829003601f168201915b50505050508152602001600182018054600181600116156101000203166002900480601f0160208091040260200160405190810160405280929190818152602001828054600181600116156101000203166002900480156113a65780601f1061137b576101008083540402835291602001916113a6565b820191906000526020600020905b81548152906001019060200180831161138957829003601f168201915b505050918352505060028201546001600160a01b03908116602083015260038301546040808401919091526004909301546060909201919091529082015160075492935091164784111561142b5760405162461bcd60e51b815260040180806020018281038252602481526020018061225e6024913960400191505060405180910390fd5b806001600160a01b0316826001600160a01b031614156114b357600960009054906101000a90046001600160a01b03166001600160a01b031663d0e30db0856040518263ffffffff1660e01b81526004016000604051808303818588803b15801561149557600080fd5b505af11580156114a9573d6000803e3d6000fd5b505050505061184d565b60045460055460408051600280825260608201835260009260208301908036833701905050905083816000815181106114e857fe5b60200260200101906001600160a01b031690816001600160a01b031681525050848160018151811061151657fe5b6001600160a01b039283166020918202929092018101919091526008546040805163d06ca61f60e01b8152600481018c815260248201928352865160448301528651600096600160281b9095049094169463d06ca61f948e948994909260649091019185820191028083838c5b8381101561159b578181015183820152602001611583565b50505050905001935050505060006040518083038186803b1580156115bf57600080fd5b505afa1580156115d3573d6000803e3d6000fd5b505050506040513d6000823e601f3d908101601f1916820160405260208110156115fc57600080fd5b8101908080516040519392919084600160201b82111561161b57600080fd5b90830190602082018581111561163057600080fd5b82518660208202830111600160201b8211171561164c57600080fd5b82525081516020918201928201910280838360005b83811015611679578181015183820152602001611661565b50505050905001604052505050905060008160018151811061169757fe5b60200260200101519050600061271086612710038302816116b457fe5b049050600085420190506000600860059054906101000a90046001600160a01b03166001600160a01b0316637ff36ab58d858930876040518663ffffffff1660e01b81526004018085815260200180602001846001600160a01b03168152602001838152602001828103825285818151815260200191508051906020019060200280838360005b8381101561175357818101518382015260200161173b565b50505050905001955050505050506000604051808303818588803b15801561177a57600080fd5b505af115801561178e573d6000803e3d6000fd5b50505050506040513d6000823e601f3d908101601f1916820160405260208110156117b857600080fd5b8101908080516040519392919084600160201b8211156117d757600080fd5b9083019060208201858111156117ec57600080fd5b82518660208202830111600160201b8211171561180857600080fd5b82525081516020918201928201910280838360005b8381101561183557818101518382015260200161181d565b50505050905001604052505050905050505050505050505b61185685611ef4565b5050505050565b60008181526003602090815260408083208151815460026001821615610100026000190190911604601f8101859004909402810160c090810190935260a0810184815290939192849284918401828280156118f95780601f106118ce576101008083540402835291602001916118f9565b820191906000526020600020905b8154815290600101906020018083116118dc57829003601f168201915b50505050508152602001600182018054600181600116156101000203166002900480601f01602080910402602001604051908101604052809291908181526020018280546001816001161561010002031660029004801561199b5780601f106119705761010080835404028352916020019161199b565b820191906000526020600020905b81548152906001019060200180831161197e57829003601f168201915b505050918352505060028201546001600160a01b0390811660208301526003830154604080840191909152600493840154606090930192909252908301516007549254600554608086015195965091949390921692611a3a576040805162461bcd60e51b8152602060048201526016602482015275417373657420697320616c726561647920656d70747960501b604482015290519081900360640190fd5b826001600160a01b0316846001600160a01b03161415611ac357600954608086015160408051632e1a7d4d60e01b81526004810192909252516001600160a01b0390921691632e1a7d4d9160248082019260009290919082900301818387803b158015611aa657600080fd5b505af1158015611aba573d6000803e3d6000fd5b50505050611ee3565b6040805160028082526060820183526000926020830190803683370190505090508481600081518110611af257fe5b60200260200101906001600160a01b031690816001600160a01b0316815250508381600181518110611b2057fe5b6001600160a01b0392831660209182029290920181019190915260085460808901516040805163d06ca61f60e01b81526004810183815260248201928352875160448301528751600097600160281b9096049095169563d06ca61f95899492936064019185810191028083838c5b83811015611ba6578181015183820152602001611b8e565b50505050905001935050505060006040518083038186803b158015611bca57600080fd5b505afa158015611bde573d6000803e3d6000fd5b505050506040513d6000823e601f3d908101601f191682016040526020811015611c0757600080fd5b8101908080516040519392919084600160201b821115611c2657600080fd5b908301906020820185811115611c3b57600080fd5b82518660208202830111600160201b82111715611c5757600080fd5b82525081516020918201928201910280838360005b83811015611c84578181015183820152602001611c6c565b505050509050016040525050509050600081600181518110611ca257fe5b6020026020010151905060006127108661271003830281611cbf57fe5b60085460808c01516040805163095ea7b360e01b8152600160281b9093046001600160a01b039081166004850152602484019290925251939092049350428801928b9283169163095ea7b39160448083019260209291908290030181600087803b158015611d2c57600080fd5b505af1158015611d40573d6000803e3d6000fd5b505050506040513d6020811015611d5657600080fd5b505060085460808c01516040516318cbafe560e01b8152600481018281526024820187905230606483018190526084830187905260a0604484019081528b5160a48501528b51600160281b9096046001600160a01b0316956318cbafe595948a948e94938b939192909160c4909101906020878101910280838360005b83811015611deb578181015183820152602001611dd3565b505050509050019650505050505050600060405180830381600087803b158015611e1457600080fd5b505af1158015611e28573d6000803e3d6000fd5b505050506040513d6000823e601f3d908101601f191682016040526020811015611e5157600080fd5b8101908080516040519392919084600160201b821115611e7057600080fd5b908301906020820185811115611e8557600080fd5b82518660208202830111600160201b82111715611ea157600080fd5b82525081516020918201928201910280838360005b83811015611ece578181015183820152602001611eb6565b50505050905001604052505050505050505050505b611eec86611ef4565b505050505050565b60008181526003602090815260408083208151815460026001821615610100026000190190911604601f8101859004909402810160c090810190935260a081018481529093919284928491840182828015611f905780601f10611f6557610100808354040283529160200191611f90565b820191906000526020600020905b815481529060010190602001808311611f7357829003601f168201915b50505050508152602001600182018054600181600116156101000203166002900480601f0160208091040260200160405190810160405280929190818152602001828054600181600116156101000203166002900480156120325780601f1061200757610100808354040283529160200191612032565b820191906000526020600020905b81548152906001019060200180831161201557829003601f168201915b505050918352505060028201546001600160a01b039081166020830152600383015460408084019190915260049093015460609092019190915260075491830151929350600092918116911681141561210357600954604080516370a0823160e01b815230600482015290516001600160a01b03909216916370a0823191602480820192602092909190829003018186803b1580156120d057600080fd5b505afa1580156120e4573d6000803e3d6000fd5b505050506040513d60208110156120fa57600080fd5b50519150612180565b60408084015181516370a0823160e01b8152306004820152915190916001600160a01b038316916370a0823191602480820192602092909190829003018186803b15801561215057600080fd5b505afa158015612164573d6000803e3d6000fd5b505050506040513d602081101561217a57600080fd5b50519250505b506000928352600360205260409092206004019190915550565b828054600181600116156101000203166002900490600052602060002090601f0160209004810192826121d05760008555612216565b82601f106121e957805160ff1916838001178555612216565b82800160010185558215612216579182015b828111156122165782518255916020019190600101906121fb565b50612222929150612226565b5090565b5b80821115612222576000815560010161222756fe4f6e6c79206f776e65722063616e2063616c6c20746869732066756e6374696f6e2e43616e27742073656e64206d6f7265207468616e2063757272656e742062616c616e6365a2646970667358221220ea21450f49e618199f8f624f2f73e55166673bb776955b4e3d917b5f45cddb1d64736f6c634300070600334f6e6c79206f776e65722063616e2063616c6c20746869732066756e6374696f6e2ea26469706673582212203f3b47024411dfc20bb613e65d8fb886b935cbb34c12545beac4e4c244f241de64736f6c63430007060033a26469706673582212209e3464636427009f6502ce6d1f0c4eadcf6435d56449d5a300f512b69f791c8664736f6c63430007060033",
  "immutableReferences": {},
  "source": "// SPDX-License-Identifier: MIT\npragma solidity ^0.7.6;\n\nimport 'contracts/wealthWallet.sol';\n\ncontract WealthWalletFactory {\n    mapping(address => WealthWallet) public wealthWallets;\n\n    function createWealthWallet() external {\n        require(address(wealthWallets[msg.sender]) == address(0), \"Wealthwallet already exists\");\n\n        //create wealth wallet\n        WealthWallet wealthWallet = new WealthWallet(msg.sender);\n\n        //map wealth wallet to sender\n        wealthWallets[msg.sender] = wealthWallet;\n    }\n\n    function getWealthWallet() external view returns (address) {\n        return address(wealthWallets[msg.sender]);\n    }\n    \n}",
  "sourcePath": "/Users/mac/Desktop/Invest/Blockchain/demo/wealthwallet/contracts/wealthWalletFactory.sol",
  "compiler": {
    "name": "solc",
    "version": "0.7.6+commit.7338295f.Emscripten.clang"
  },
  "schemaVersion": "3.4.1",
  "updatedAt": "2021-07-21T02:25:15.185Z",
  "devdoc": {
    "kind": "dev",
    "methods": {},
    "version": 1
  },
  "userdoc": {
    "kind": "user",
    "methods": {},
    "version": 1
  }
}